{
  "contractName": "LevelPass",
  "abi": [
    {
      "inputs": [],
      "stateMutability": "nonpayable",
      "type": "constructor"
    },
    {
      "anonymous": false,
      "inputs": [
        {
          "indexed": false,
          "internalType": "uint256",
          "name": "idx",
          "type": "uint256"
        }
      ],
      "name": "AddedReward",
      "type": "event"
    },
    {
      "anonymous": false,
      "inputs": [
        {
          "indexed": true,
          "internalType": "address",
          "name": "owner",
          "type": "address"
        },
        {
          "indexed": true,
          "internalType": "address",
          "name": "approved",
          "type": "address"
        },
        {
          "indexed": true,
          "internalType": "uint256",
          "name": "tokenId",
          "type": "uint256"
        }
      ],
      "name": "Approval",
      "type": "event"
    },
    {
      "anonymous": false,
      "inputs": [
        {
          "indexed": true,
          "internalType": "address",
          "name": "owner",
          "type": "address"
        },
        {
          "indexed": true,
          "internalType": "address",
          "name": "operator",
          "type": "address"
        },
        {
          "indexed": false,
          "internalType": "bool",
          "name": "approved",
          "type": "bool"
        }
      ],
      "name": "ApprovalForAll",
      "type": "event"
    },
    {
      "anonymous": false,
      "inputs": [
        {
          "indexed": false,
          "internalType": "string",
          "name": "uri",
          "type": "string"
        }
      ],
      "name": "GetTokenURI",
      "type": "event"
    },
    {
      "anonymous": false,
      "inputs": [
        {
          "indexed": false,
          "internalType": "uint256",
          "name": "id",
          "type": "uint256"
        }
      ],
      "name": "LevelPassRequest",
      "type": "event"
    },
    {
      "anonymous": false,
      "inputs": [
        {
          "indexed": true,
          "internalType": "address",
          "name": "previousOwner",
          "type": "address"
        },
        {
          "indexed": true,
          "internalType": "address",
          "name": "newOwner",
          "type": "address"
        }
      ],
      "name": "OwnershipTransferred",
      "type": "event"
    },
    {
      "anonymous": false,
      "inputs": [
        {
          "indexed": false,
          "internalType": "uint256",
          "name": "id",
          "type": "uint256"
        }
      ],
      "name": "RemovedReward",
      "type": "event"
    },
    {
      "anonymous": false,
      "inputs": [
        {
          "indexed": true,
          "internalType": "address",
          "name": "from",
          "type": "address"
        },
        {
          "indexed": true,
          "internalType": "address",
          "name": "to",
          "type": "address"
        },
        {
          "indexed": true,
          "internalType": "uint256",
          "name": "tokenId",
          "type": "uint256"
        }
      ],
      "name": "Transfer",
      "type": "event"
    },
    {
      "inputs": [
        {
          "internalType": "address",
          "name": "to",
          "type": "address"
        },
        {
          "internalType": "uint256",
          "name": "tokenId",
          "type": "uint256"
        }
      ],
      "name": "approve",
      "outputs": [],
      "stateMutability": "nonpayable",
      "type": "function"
    },
    {
      "inputs": [
        {
          "internalType": "address",
          "name": "owner",
          "type": "address"
        }
      ],
      "name": "balanceOf",
      "outputs": [
        {
          "internalType": "uint256",
          "name": "",
          "type": "uint256"
        }
      ],
      "stateMutability": "view",
      "type": "function"
    },
    {
      "inputs": [
        {
          "internalType": "uint256",
          "name": "tokenId",
          "type": "uint256"
        }
      ],
      "name": "getApproved",
      "outputs": [
        {
          "internalType": "address",
          "name": "",
          "type": "address"
        }
      ],
      "stateMutability": "view",
      "type": "function"
    },
    {
      "inputs": [
        {
          "internalType": "address",
          "name": "owner",
          "type": "address"
        },
        {
          "internalType": "address",
          "name": "operator",
          "type": "address"
        }
      ],
      "name": "isApprovedForAll",
      "outputs": [
        {
          "internalType": "bool",
          "name": "",
          "type": "bool"
        }
      ],
      "stateMutability": "view",
      "type": "function"
    },
    {
      "inputs": [],
      "name": "name",
      "outputs": [
        {
          "internalType": "string",
          "name": "",
          "type": "string"
        }
      ],
      "stateMutability": "view",
      "type": "function"
    },
    {
      "inputs": [],
      "name": "owner",
      "outputs": [
        {
          "internalType": "address",
          "name": "",
          "type": "address"
        }
      ],
      "stateMutability": "view",
      "type": "function"
    },
    {
      "inputs": [
        {
          "internalType": "uint256",
          "name": "tokenId",
          "type": "uint256"
        }
      ],
      "name": "ownerOf",
      "outputs": [
        {
          "internalType": "address",
          "name": "",
          "type": "address"
        }
      ],
      "stateMutability": "view",
      "type": "function"
    },
    {
      "inputs": [],
      "name": "renounceOwnership",
      "outputs": [],
      "stateMutability": "nonpayable",
      "type": "function"
    },
    {
      "inputs": [
        {
          "internalType": "address",
          "name": "from",
          "type": "address"
        },
        {
          "internalType": "address",
          "name": "to",
          "type": "address"
        },
        {
          "internalType": "uint256",
          "name": "tokenId",
          "type": "uint256"
        }
      ],
      "name": "safeTransferFrom",
      "outputs": [],
      "stateMutability": "nonpayable",
      "type": "function"
    },
    {
      "inputs": [
        {
          "internalType": "address",
          "name": "from",
          "type": "address"
        },
        {
          "internalType": "address",
          "name": "to",
          "type": "address"
        },
        {
          "internalType": "uint256",
          "name": "tokenId",
          "type": "uint256"
        },
        {
          "internalType": "bytes",
          "name": "_data",
          "type": "bytes"
        }
      ],
      "name": "safeTransferFrom",
      "outputs": [],
      "stateMutability": "nonpayable",
      "type": "function"
    },
    {
      "inputs": [
        {
          "internalType": "address",
          "name": "operator",
          "type": "address"
        },
        {
          "internalType": "bool",
          "name": "approved",
          "type": "bool"
        }
      ],
      "name": "setApprovalForAll",
      "outputs": [],
      "stateMutability": "nonpayable",
      "type": "function"
    },
    {
      "inputs": [
        {
          "internalType": "bytes4",
          "name": "interfaceId",
          "type": "bytes4"
        }
      ],
      "name": "supportsInterface",
      "outputs": [
        {
          "internalType": "bool",
          "name": "",
          "type": "bool"
        }
      ],
      "stateMutability": "view",
      "type": "function"
    },
    {
      "inputs": [],
      "name": "symbol",
      "outputs": [
        {
          "internalType": "string",
          "name": "",
          "type": "string"
        }
      ],
      "stateMutability": "view",
      "type": "function"
    },
    {
      "inputs": [
        {
          "internalType": "uint256",
          "name": "tokenId",
          "type": "uint256"
        }
      ],
      "name": "tokenURI",
      "outputs": [
        {
          "internalType": "string",
          "name": "",
          "type": "string"
        }
      ],
      "stateMutability": "view",
      "type": "function"
    },
    {
      "inputs": [
        {
          "internalType": "address",
          "name": "from",
          "type": "address"
        },
        {
          "internalType": "address",
          "name": "to",
          "type": "address"
        },
        {
          "internalType": "uint256",
          "name": "tokenId",
          "type": "uint256"
        }
      ],
      "name": "transferFrom",
      "outputs": [],
      "stateMutability": "nonpayable",
      "type": "function"
    },
    {
      "inputs": [
        {
          "internalType": "address",
          "name": "newOwner",
          "type": "address"
        }
      ],
      "name": "transferOwnership",
      "outputs": [],
      "stateMutability": "nonpayable",
      "type": "function"
    },
    {
      "inputs": [
        {
          "internalType": "address",
          "name": "recipient",
          "type": "address"
        },
        {
          "internalType": "string",
          "name": "tokenURI",
          "type": "string"
        }
      ],
      "name": "requestNewLevelPass",
      "outputs": [],
      "stateMutability": "nonpayable",
      "type": "function"
    },
    {
      "inputs": [
        {
          "internalType": "uint256",
          "name": "levelPassId",
          "type": "uint256"
        },
        {
          "internalType": "uint256",
          "name": "rewardId",
          "type": "uint256"
        }
      ],
      "name": "addRewardToLevelPass",
      "outputs": [],
      "stateMutability": "nonpayable",
      "type": "function"
    },
    {
      "inputs": [
        {
          "internalType": "uint256",
          "name": "levelPassId",
          "type": "uint256"
        },
        {
          "internalType": "uint256",
          "name": "rewardIdx",
          "type": "uint256"
        }
      ],
      "name": "removeRewardFromLevelPass",
      "outputs": [],
      "stateMutability": "nonpayable",
      "type": "function"
    },
    {
      "inputs": [
        {
          "internalType": "uint256",
          "name": "levelPassId",
          "type": "uint256"
        }
      ],
      "name": "getRewards",
      "outputs": [
        {
          "internalType": "uint256[]",
          "name": "",
          "type": "uint256[]"
        }
      ],
      "stateMutability": "view",
      "type": "function"
    }
  ],
  "bytecode": "0x60806040523480156200001157600080fd5b506040518060400160405280600981526020017f4c6576656c5061737300000000000000000000000000000000000000000000008152506040518060400160405280600281526020017f4c50000000000000000000000000000000000000000000000000000000000000815250816000908051906020019062000096929190620001a6565b508060019080519060200190620000af929190620001a6565b505050620000d2620000c6620000d860201b60201c565b620000e060201b60201c565b620002bb565b600033905090565b6000600760009054906101000a900473ffffffffffffffffffffffffffffffffffffffff16905081600760006101000a81548173ffffffffffffffffffffffffffffffffffffffff021916908373ffffffffffffffffffffffffffffffffffffffff1602179055508173ffffffffffffffffffffffffffffffffffffffff168173ffffffffffffffffffffffffffffffffffffffff167f8be0079c531659141344cd1fd0a4f28419497f9722a3daafe3b4186f6b6457e060405160405180910390a35050565b828054620001b49062000285565b90600052602060002090601f016020900481019282620001d8576000855562000224565b82601f10620001f357805160ff191683800117855562000224565b8280016001018555821562000224579182015b828111156200022357825182559160200191906001019062000206565b5b50905062000233919062000237565b5090565b5b808211156200025257600081600090555060010162000238565b5090565b7f4e487b7100000000000000000000000000000000000000000000000000000000600052602260045260246000fd5b600060028204905060018216806200029e57607f821691505b60208210811415620002b557620002b462000256565b5b50919050565b61343880620002cb6000396000f3fe608060405234801561001057600080fd5b506004361061012c5760003560e01c80638da5cb5b116100ad578063c0d8012c11610071578063c0d8012c14610319578063c87b56dd14610349578063caf9447814610379578063e985e9c514610395578063f2fde38b146103c55761012c565b80638da5cb5b1461028957806395d89b41146102a7578063a22cb465146102c5578063b05d1ee5146102e1578063b88d4fde146102fd5761012c565b806342842e0e116100f457806342842e0e146101e7578063469ef60d146102035780636352211e1461021f57806370a082311461024f578063715018a61461027f5761012c565b806301ffc9a71461013157806306fdde0314610161578063081812fc1461017f578063095ea7b3146101af57806323b872dd146101cb575b600080fd5b61014b60048036038101906101469190611eea565b6103e1565b6040516101589190611f32565b60405180910390f35b6101696104c3565b6040516101769190611fe6565b60405180910390f35b6101996004803603810190610194919061203e565b610555565b6040516101a691906120ac565b60405180910390f35b6101c960048036038101906101c491906120f3565b6105da565b005b6101e560048036038101906101e09190612133565b6106f2565b005b61020160048036038101906101fc9190612133565b610752565b005b61021d60048036038101906102189190612186565b610772565b005b6102396004803603810190610234919061203e565b610809565b60405161024691906120ac565b60405180910390f35b610269600480360381019061026491906121c6565b6108bb565b6040516102769190612202565b60405180910390f35b610287610973565b005b6102916109fb565b60405161029e91906120ac565b60405180910390f35b6102af610a25565b6040516102bc9190611fe6565b60405180910390f35b6102df60048036038101906102da9190612249565b610ab7565b005b6102fb60048036038101906102f69190612186565b610c38565b005b610317600480360381019061031291906123be565b610cdb565b005b610333600480360381019061032e919061203e565b610d3d565b60405161034091906124ff565b60405180910390f35b610363600480360381019061035e919061203e565b610da8565b6040516103709190611fe6565b60405180910390f35b610393600480360381019061038e91906125c2565b610efa565b005b6103af60048036038101906103aa919061261e565b611028565b6040516103bc9190611f32565b60405180910390f35b6103df60048036038101906103da91906121c6565b6110bc565b005b60007f80ac58cd000000000000000000000000000000000000000000000000000000007bffffffffffffffffffffffffffffffffffffffffffffffffffffffff1916827bffffffffffffffffffffffffffffffffffffffffffffffffffffffff191614806104ac57507f5b5e139f000000000000000000000000000000000000000000000000000000007bffffffffffffffffffffffffffffffffffffffffffffffffffffffff1916827bffffffffffffffffffffffffffffffffffffffffffffffffffffffff1916145b806104bc57506104bb826111b4565b5b9050919050565b6060600080546104d29061268d565b80601f01602080910402602001604051908101604052809291908181526020018280546104fe9061268d565b801561054b5780601f106105205761010080835404028352916020019161054b565b820191906000526020600020905b81548152906001019060200180831161052e57829003601f168201915b5050505050905090565b60006105608261121e565b61059f576040517f08c379a000000000000000000000000000000000000000000000000000000000815260040161059690612731565b60405180910390fd5b6004600083815260200190815260200160002060009054906101000a900473ffffffffffffffffffffffffffffffffffffffff169050919050565b60006105e582610809565b90508073ffffffffffffffffffffffffffffffffffffffff168373ffffffffffffffffffffffffffffffffffffffff161415610656576040517f08c379a000000000000000000000000000000000000000000000000000000000815260040161064d906127c3565b60405180910390fd5b8073ffffffffffffffffffffffffffffffffffffffff1661067561128a565b73ffffffffffffffffffffffffffffffffffffffff1614806106a457506106a38161069e61128a565b611028565b5b6106e3576040517f08c379a00000000000000000000000000000000000000000000000000000000081526004016106da90612855565b60405180910390fd5b6106ed8383611292565b505050565b6107036106fd61128a565b8261134b565b610742576040517f08c379a0000000000000000000000000000000000000000000000000000000008152600401610739906128e7565b60405180910390fd5b61074d838383611429565b505050565b61076d83838360405180602001604052806000815250610cdb565b505050565b600a60008381526020019081526020016000208190806001815401808255809150506001900390600052602060002001600090919091909150557f26a1964bea2d58fb6eabce1c31b9f72f35b1441bcf8c731bf09351a9215542806001600a6000858152602001908152602001600020805490506107f09190612936565b6040516107fd9190612202565b60405180910390a15050565b6000806002600084815260200190815260200160002060009054906101000a900473ffffffffffffffffffffffffffffffffffffffff169050600073ffffffffffffffffffffffffffffffffffffffff168173ffffffffffffffffffffffffffffffffffffffff1614156108b2576040517f08c379a00000000000000000000000000000000000000000000000000000000081526004016108a9906129dc565b60405180910390fd5b80915050919050565b60008073ffffffffffffffffffffffffffffffffffffffff168273ffffffffffffffffffffffffffffffffffffffff16141561092c576040517f08c379a000000000000000000000000000000000000000000000000000000000815260040161092390612a6e565b60405180910390fd5b600360008373ffffffffffffffffffffffffffffffffffffffff1673ffffffffffffffffffffffffffffffffffffffff168152602001908152602001600020549050919050565b61097b61128a565b73ffffffffffffffffffffffffffffffffffffffff166109996109fb565b73ffffffffffffffffffffffffffffffffffffffff16146109ef576040517f08c379a00000000000000000000000000000000000000000000000000000000081526004016109e690612ada565b60405180910390fd5b6109f96000611685565b565b6000600760009054906101000a900473ffffffffffffffffffffffffffffffffffffffff16905090565b606060018054610a349061268d565b80601f0160208091040260200160405190810160405280929190818152602001828054610a609061268d565b8015610aad5780601f10610a8257610100808354040283529160200191610aad565b820191906000526020600020905b815481529060010190602001808311610a9057829003601f168201915b5050505050905090565b610abf61128a565b73ffffffffffffffffffffffffffffffffffffffff168273ffffffffffffffffffffffffffffffffffffffff161415610b2d576040517f08c379a0000000000000000000000000000000000000000000000000000000008152600401610b2490612b46565b60405180910390fd5b8060056000610b3a61128a565b73ffffffffffffffffffffffffffffffffffffffff1673ffffffffffffffffffffffffffffffffffffffff16815260200190815260200160002060008473ffffffffffffffffffffffffffffffffffffffff1673ffffffffffffffffffffffffffffffffffffffff16815260200190815260200160002060006101000a81548160ff0219169083151502179055508173ffffffffffffffffffffffffffffffffffffffff16610be761128a565b73ffffffffffffffffffffffffffffffffffffffff167f17307eab39ab6107e8899845ad3d59bd9653f200f220920489ca2b5937696c3183604051610c2c9190611f32565b60405180910390a35050565b6000600a60008481526020019081526020016000208281548110610c5f57610c5e612b66565b5b90600052602060002001549050600a60008481526020019081526020016000208281548110610c9157610c90612b66565b5b90600052602060002001600090557fe28ac7e4ca20ae3d82d77cdb377ef4f5f699fc8d36940ff9ba9dfd8e1adca70a81604051610cce9190612202565b60405180910390a1505050565b610cec610ce661128a565b8361134b565b610d2b576040517f08c379a0000000000000000000000000000000000000000000000000000000008152600401610d22906128e7565b60405180910390fd5b610d378484848461174b565b50505050565b6060600a6000838152602001908152602001600020805480602002602001604051908101604052809291908181526020018280548015610d9c57602002820191906000526020600020905b815481526020019060010190808311610d88575b50505050509050919050565b6060610db38261121e565b610df2576040517f08c379a0000000000000000000000000000000000000000000000000000000008152600401610de990612c07565b60405180910390fd5b6000600660008481526020019081526020016000208054610e129061268d565b80601f0160208091040260200160405190810160405280929190818152602001828054610e3e9061268d565b8015610e8b5780601f10610e6057610100808354040283529160200191610e8b565b820191906000526020600020905b815481529060010190602001808311610e6e57829003601f168201915b505050505090506000610e9c6117a7565b9050600081511415610eb2578192505050610ef5565b600082511115610ee7578082604051602001610ecf929190612c63565b60405160208183030381529060405292505050610ef5565b610ef0846117be565b925050505b919050565b6000600960008473ffffffffffffffffffffffffffffffffffffffff1673ffffffffffffffffffffffffffffffffffffffff1681526020019081526020016000205414610f7c576040517f08c379a0000000000000000000000000000000000000000000000000000000008152600401610f7390612cf9565b60405180910390fd5b610f866008611865565b6000610f92600861187b565b9050610f9e8382611889565b610fa88183611a57565b80600960008573ffffffffffffffffffffffffffffffffffffffff1673ffffffffffffffffffffffffffffffffffffffff168152602001908152602001600020819055507f249428d7f87f963bc3ed9526c035dd35db94dc8ec8e28a78b28c62fb803680798160405161101b9190612202565b60405180910390a1505050565b6000600560008473ffffffffffffffffffffffffffffffffffffffff1673ffffffffffffffffffffffffffffffffffffffff16815260200190815260200160002060008373ffffffffffffffffffffffffffffffffffffffff1673ffffffffffffffffffffffffffffffffffffffff16815260200190815260200160002060009054906101000a900460ff16905092915050565b6110c461128a565b73ffffffffffffffffffffffffffffffffffffffff166110e26109fb565b73ffffffffffffffffffffffffffffffffffffffff1614611138576040517f08c379a000000000000000000000000000000000000000000000000000000000815260040161112f90612ada565b60405180910390fd5b600073ffffffffffffffffffffffffffffffffffffffff168173ffffffffffffffffffffffffffffffffffffffff1614156111a8576040517f08c379a000000000000000000000000000000000000000000000000000000000815260040161119f90612d8b565b60405180910390fd5b6111b181611685565b50565b60007f01ffc9a7000000000000000000000000000000000000000000000000000000007bffffffffffffffffffffffffffffffffffffffffffffffffffffffff1916827bffffffffffffffffffffffffffffffffffffffffffffffffffffffff1916149050919050565b60008073ffffffffffffffffffffffffffffffffffffffff166002600084815260200190815260200160002060009054906101000a900473ffffffffffffffffffffffffffffffffffffffff1673ffffffffffffffffffffffffffffffffffffffff1614159050919050565b600033905090565b816004600083815260200190815260200160002060006101000a81548173ffffffffffffffffffffffffffffffffffffffff021916908373ffffffffffffffffffffffffffffffffffffffff160217905550808273ffffffffffffffffffffffffffffffffffffffff1661130583610809565b73ffffffffffffffffffffffffffffffffffffffff167f8c5be1e5ebec7d5bd14f71427d1e84f3dd0314c0f7b2291e5b200ac8c7c3b92560405160405180910390a45050565b60006113568261121e565b611395576040517f08c379a000000000000000000000000000000000000000000000000000000000815260040161138c90612e1d565b60405180910390fd5b60006113a083610809565b90508073ffffffffffffffffffffffffffffffffffffffff168473ffffffffffffffffffffffffffffffffffffffff16148061140f57508373ffffffffffffffffffffffffffffffffffffffff166113f784610555565b73ffffffffffffffffffffffffffffffffffffffff16145b80611420575061141f8185611028565b5b91505092915050565b8273ffffffffffffffffffffffffffffffffffffffff1661144982610809565b73ffffffffffffffffffffffffffffffffffffffff161461149f576040517f08c379a000000000000000000000000000000000000000000000000000000000815260040161149690612eaf565b60405180910390fd5b600073ffffffffffffffffffffffffffffffffffffffff168273ffffffffffffffffffffffffffffffffffffffff16141561150f576040517f08c379a000000000000000000000000000000000000000000000000000000000815260040161150690612f41565b60405180910390fd5b61151a838383611acb565b611525600082611292565b6001600360008573ffffffffffffffffffffffffffffffffffffffff1673ffffffffffffffffffffffffffffffffffffffff16815260200190815260200160002060008282546115759190612936565b925050819055506001600360008473ffffffffffffffffffffffffffffffffffffffff1673ffffffffffffffffffffffffffffffffffffffff16815260200190815260200160002060008282546115cc9190612f61565b92505081905550816002600083815260200190815260200160002060006101000a81548173ffffffffffffffffffffffffffffffffffffffff021916908373ffffffffffffffffffffffffffffffffffffffff160217905550808273ffffffffffffffffffffffffffffffffffffffff168473ffffffffffffffffffffffffffffffffffffffff167fddf252ad1be2c89b69c2b068fc378daa952ba7f163c4a11628f55a4df523b3ef60405160405180910390a4505050565b6000600760009054906101000a900473ffffffffffffffffffffffffffffffffffffffff16905081600760006101000a81548173ffffffffffffffffffffffffffffffffffffffff021916908373ffffffffffffffffffffffffffffffffffffffff1602179055508173ffffffffffffffffffffffffffffffffffffffff168173ffffffffffffffffffffffffffffffffffffffff167f8be0079c531659141344cd1fd0a4f28419497f9722a3daafe3b4186f6b6457e060405160405180910390a35050565b611756848484611429565b61176284848484611ad0565b6117a1576040517f08c379a000000000000000000000000000000000000000000000000000000000815260040161179890613029565b60405180910390fd5b50505050565b606060405180602001604052806000815250905090565b60606117c98261121e565b611808576040517f08c379a00000000000000000000000000000000000000000000000000000000081526004016117ff906130bb565b60405180910390fd5b60006118126117a7565b90506000815111611832576040518060200160405280600081525061185d565b8061183c84611c67565b60405160200161184d929190612c63565b6040516020818303038152906040525b915050919050565b6001816000016000828254019250508190555050565b600081600001549050919050565b600073ffffffffffffffffffffffffffffffffffffffff168273ffffffffffffffffffffffffffffffffffffffff1614156118f9576040517f08c379a00000000000000000000000000000000000000000000000000000000081526004016118f090613127565b60405180910390fd5b6119028161121e565b15611942576040517f08c379a000000000000000000000000000000000000000000000000000000000815260040161193990613193565b60405180910390fd5b61194e60008383611acb565b6001600360008473ffffffffffffffffffffffffffffffffffffffff1673ffffffffffffffffffffffffffffffffffffffff168152602001908152602001600020600082825461199e9190612f61565b92505081905550816002600083815260200190815260200160002060006101000a81548173ffffffffffffffffffffffffffffffffffffffff021916908373ffffffffffffffffffffffffffffffffffffffff160217905550808273ffffffffffffffffffffffffffffffffffffffff16600073ffffffffffffffffffffffffffffffffffffffff167fddf252ad1be2c89b69c2b068fc378daa952ba7f163c4a11628f55a4df523b3ef60405160405180910390a45050565b611a608261121e565b611a9f576040517f08c379a0000000000000000000000000000000000000000000000000000000008152600401611a9690613225565b60405180910390fd5b80600660008481526020019081526020016000209080519060200190611ac6929190611ddb565b505050565b505050565b6000611af18473ffffffffffffffffffffffffffffffffffffffff16611dc8565b15611c5a578373ffffffffffffffffffffffffffffffffffffffff1663150b7a02611b1a61128a565b8786866040518563ffffffff1660e01b8152600401611b3c949392919061329a565b602060405180830381600087803b158015611b5657600080fd5b505af1925050508015611b8757506040513d601f19601f82011682018060405250810190611b8491906132fb565b60015b611c0a573d8060008114611bb7576040519150601f19603f3d011682016040523d82523d6000602084013e611bbc565b606091505b50600081511415611c02576040517f08c379a0000000000000000000000000000000000000000000000000000000008152600401611bf990613029565b60405180910390fd5b805181602001fd5b63150b7a0260e01b7bffffffffffffffffffffffffffffffffffffffffffffffffffffffff1916817bffffffffffffffffffffffffffffffffffffffffffffffffffffffff191614915050611c5f565b600190505b949350505050565b60606000821415611caf576040518060400160405280600181526020017f30000000000000000000000000000000000000000000000000000000000000008152509050611dc3565b600082905060005b60008214611ce1578080611cca90613328565b915050600a82611cda91906133a0565b9150611cb7565b60008167ffffffffffffffff811115611cfd57611cfc612293565b5b6040519080825280601f01601f191660200182016040528015611d2f5781602001600182028036833780820191505090505b5090505b60008514611dbc57600182611d489190612936565b9150600a85611d5791906133d1565b6030611d639190612f61565b60f81b818381518110611d7957611d78612b66565b5b60200101907effffffffffffffffffffffffffffffffffffffffffffffffffffffffffffff1916908160001a905350600a85611db591906133a0565b9450611d33565b8093505050505b919050565b600080823b905060008111915050919050565b828054611de79061268d565b90600052602060002090601f016020900481019282611e095760008555611e50565b82601f10611e2257805160ff1916838001178555611e50565b82800160010185558215611e50579182015b82811115611e4f578251825591602001919060010190611e34565b5b509050611e5d9190611e61565b5090565b5b80821115611e7a576000816000905550600101611e62565b5090565b6000604051905090565b600080fd5b600080fd5b60007fffffffff0000000000000000000000000000000000000000000000000000000082169050919050565b611ec781611e92565b8114611ed257600080fd5b50565b600081359050611ee481611ebe565b92915050565b600060208284031215611f0057611eff611e88565b5b6000611f0e84828501611ed5565b91505092915050565b60008115159050919050565b611f2c81611f17565b82525050565b6000602082019050611f476000830184611f23565b92915050565b600081519050919050565b600082825260208201905092915050565b60005b83811015611f87578082015181840152602081019050611f6c565b83811115611f96576000848401525b50505050565b6000601f19601f8301169050919050565b6000611fb882611f4d565b611fc28185611f58565b9350611fd2818560208601611f69565b611fdb81611f9c565b840191505092915050565b600060208201905081810360008301526120008184611fad565b905092915050565b6000819050919050565b61201b81612008565b811461202657600080fd5b50565b60008135905061203881612012565b92915050565b60006020828403121561205457612053611e88565b5b600061206284828501612029565b91505092915050565b600073ffffffffffffffffffffffffffffffffffffffff82169050919050565b60006120968261206b565b9050919050565b6120a68161208b565b82525050565b60006020820190506120c1600083018461209d565b92915050565b6120d08161208b565b81146120db57600080fd5b50565b6000813590506120ed816120c7565b92915050565b6000806040838503121561210a57612109611e88565b5b6000612118858286016120de565b925050602061212985828601612029565b9150509250929050565b60008060006060848603121561214c5761214b611e88565b5b600061215a868287016120de565b935050602061216b868287016120de565b925050604061217c86828701612029565b9150509250925092565b6000806040838503121561219d5761219c611e88565b5b60006121ab85828601612029565b92505060206121bc85828601612029565b9150509250929050565b6000602082840312156121dc576121db611e88565b5b60006121ea848285016120de565b91505092915050565b6121fc81612008565b82525050565b600060208201905061221760008301846121f3565b92915050565b61222681611f17565b811461223157600080fd5b50565b6000813590506122438161221d565b92915050565b600080604083850312156122605761225f611e88565b5b600061226e858286016120de565b925050602061227f85828601612234565b9150509250929050565b600080fd5b600080fd5b7f4e487b7100000000000000000000000000000000000000000000000000000000600052604160045260246000fd5b6122cb82611f9c565b810181811067ffffffffffffffff821117156122ea576122e9612293565b5b80604052505050565b60006122fd611e7e565b905061230982826122c2565b919050565b600067ffffffffffffffff82111561232957612328612293565b5b61233282611f9c565b9050602081019050919050565b82818337600083830152505050565b600061236161235c8461230e565b6122f3565b90508281526020810184848401111561237d5761237c61228e565b5b61238884828561233f565b509392505050565b600082601f8301126123a5576123a4612289565b5b81356123b584826020860161234e565b91505092915050565b600080600080608085870312156123d8576123d7611e88565b5b60006123e6878288016120de565b94505060206123f7878288016120de565b935050604061240887828801612029565b925050606085013567ffffffffffffffff81111561242957612428611e8d565b5b61243587828801612390565b91505092959194509250565b600081519050919050565b600082825260208201905092915050565b6000819050602082019050919050565b61247681612008565b82525050565b6000612488838361246d565b60208301905092915050565b6000602082019050919050565b60006124ac82612441565b6124b6818561244c565b93506124c18361245d565b8060005b838110156124f25781516124d9888261247c565b97506124e483612494565b9250506001810190506124c5565b5085935050505092915050565b6000602082019050818103600083015261251981846124a1565b905092915050565b600067ffffffffffffffff82111561253c5761253b612293565b5b61254582611f9c565b9050602081019050919050565b600061256561256084612521565b6122f3565b9050828152602081018484840111156125815761258061228e565b5b61258c84828561233f565b509392505050565b600082601f8301126125a9576125a8612289565b5b81356125b9848260208601612552565b91505092915050565b600080604083850312156125d9576125d8611e88565b5b60006125e7858286016120de565b925050602083013567ffffffffffffffff81111561260857612607611e8d565b5b61261485828601612594565b9150509250929050565b6000806040838503121561263557612634611e88565b5b6000612643858286016120de565b9250506020612654858286016120de565b9150509250929050565b7f4e487b7100000000000000000000000000000000000000000000000000000000600052602260045260246000fd5b600060028204905060018216806126a557607f821691505b602082108114156126b9576126b861265e565b5b50919050565b7f4552433732313a20617070726f76656420717565727920666f72206e6f6e657860008201527f697374656e7420746f6b656e0000000000000000000000000000000000000000602082015250565b600061271b602c83611f58565b9150612726826126bf565b604082019050919050565b6000602082019050818103600083015261274a8161270e565b9050919050565b7f4552433732313a20617070726f76616c20746f2063757272656e74206f776e6560008201527f7200000000000000000000000000000000000000000000000000000000000000602082015250565b60006127ad602183611f58565b91506127b882612751565b604082019050919050565b600060208201905081810360008301526127dc816127a0565b9050919050565b7f4552433732313a20617070726f76652063616c6c6572206973206e6f74206f7760008201527f6e6572206e6f7220617070726f76656420666f7220616c6c0000000000000000602082015250565b600061283f603883611f58565b915061284a826127e3565b604082019050919050565b6000602082019050818103600083015261286e81612832565b9050919050565b7f4552433732313a207472616e736665722063616c6c6572206973206e6f74206f60008201527f776e6572206e6f7220617070726f766564000000000000000000000000000000602082015250565b60006128d1603183611f58565b91506128dc82612875565b604082019050919050565b60006020820190508181036000830152612900816128c4565b9050919050565b7f4e487b7100000000000000000000000000000000000000000000000000000000600052601160045260246000fd5b600061294182612008565b915061294c83612008565b92508282101561295f5761295e612907565b5b828203905092915050565b7f4552433732313a206f776e657220717565727920666f72206e6f6e657869737460008201527f656e7420746f6b656e0000000000000000000000000000000000000000000000602082015250565b60006129c6602983611f58565b91506129d18261296a565b604082019050919050565b600060208201905081810360008301526129f5816129b9565b9050919050565b7f4552433732313a2062616c616e636520717565727920666f7220746865207a6560008201527f726f206164647265737300000000000000000000000000000000000000000000602082015250565b6000612a58602a83611f58565b9150612a63826129fc565b604082019050919050565b60006020820190508181036000830152612a8781612a4b565b9050919050565b7f4f776e61626c653a2063616c6c6572206973206e6f7420746865206f776e6572600082015250565b6000612ac4602083611f58565b9150612acf82612a8e565b602082019050919050565b60006020820190508181036000830152612af381612ab7565b9050919050565b7f4552433732313a20617070726f766520746f2063616c6c657200000000000000600082015250565b6000612b30601983611f58565b9150612b3b82612afa565b602082019050919050565b60006020820190508181036000830152612b5f81612b23565b9050919050565b7f4e487b7100000000000000000000000000000000000000000000000000000000600052603260045260246000fd5b7f45524337323155524953746f726167653a2055524920717565727920666f722060008201527f6e6f6e6578697374656e7420746f6b656e000000000000000000000000000000602082015250565b6000612bf1603183611f58565b9150612bfc82612b95565b604082019050919050565b60006020820190508181036000830152612c2081612be4565b9050919050565b600081905092915050565b6000612c3d82611f4d565b612c478185612c27565b9350612c57818560208601611f69565b80840191505092915050565b6000612c6f8285612c32565b9150612c7b8284612c32565b91508190509392505050565b7f526563697069656e7420616c7265616479206f776e732061206c6576656c207060008201527f6173732e00000000000000000000000000000000000000000000000000000000602082015250565b6000612ce3602483611f58565b9150612cee82612c87565b604082019050919050565b60006020820190508181036000830152612d1281612cd6565b9050919050565b7f4f776e61626c653a206e6577206f776e657220697320746865207a65726f206160008201527f6464726573730000000000000000000000000000000000000000000000000000602082015250565b6000612d75602683611f58565b9150612d8082612d19565b604082019050919050565b60006020820190508181036000830152612da481612d68565b9050919050565b7f4552433732313a206f70657261746f7220717565727920666f72206e6f6e657860008201527f697374656e7420746f6b656e0000000000000000000000000000000000000000602082015250565b6000612e07602c83611f58565b9150612e1282612dab565b604082019050919050565b60006020820190508181036000830152612e3681612dfa565b9050919050565b7f4552433732313a207472616e73666572206f6620746f6b656e2074686174206960008201527f73206e6f74206f776e0000000000000000000000000000000000000000000000602082015250565b6000612e99602983611f58565b9150612ea482612e3d565b604082019050919050565b60006020820190508181036000830152612ec881612e8c565b9050919050565b7f4552433732313a207472616e7366657220746f20746865207a65726f2061646460008201527f7265737300000000000000000000000000000000000000000000000000000000602082015250565b6000612f2b602483611f58565b9150612f3682612ecf565b604082019050919050565b60006020820190508181036000830152612f5a81612f1e565b9050919050565b6000612f6c82612008565b9150612f7783612008565b9250827fffffffffffffffffffffffffffffffffffffffffffffffffffffffffffffffff03821115612fac57612fab612907565b5b828201905092915050565b7f4552433732313a207472616e7366657220746f206e6f6e20455243373231526560008201527f63656976657220696d706c656d656e7465720000000000000000000000000000602082015250565b6000613013603283611f58565b915061301e82612fb7565b604082019050919050565b6000602082019050818103600083015261304281613006565b9050919050565b7f4552433732314d657461646174613a2055524920717565727920666f72206e6f60008201527f6e6578697374656e7420746f6b656e0000000000000000000000000000000000602082015250565b60006130a5602f83611f58565b91506130b082613049565b604082019050919050565b600060208201905081810360008301526130d481613098565b9050919050565b7f4552433732313a206d696e7420746f20746865207a65726f2061646472657373600082015250565b6000613111602083611f58565b915061311c826130db565b602082019050919050565b6000602082019050818103600083015261314081613104565b9050919050565b7f4552433732313a20746f6b656e20616c7265616479206d696e74656400000000600082015250565b600061317d601c83611f58565b915061318882613147565b602082019050919050565b600060208201905081810360008301526131ac81613170565b9050919050565b7f45524337323155524953746f726167653a2055524920736574206f66206e6f6e60008201527f6578697374656e7420746f6b656e000000000000000000000000000000000000602082015250565b600061320f602e83611f58565b915061321a826131b3565b604082019050919050565b6000602082019050818103600083015261323e81613202565b9050919050565b600081519050919050565b600082825260208201905092915050565b600061326c82613245565b6132768185613250565b9350613286818560208601611f69565b61328f81611f9c565b840191505092915050565b60006080820190506132af600083018761209d565b6132bc602083018661209d565b6132c960408301856121f3565b81810360608301526132db8184613261565b905095945050505050565b6000815190506132f581611ebe565b92915050565b60006020828403121561331157613310611e88565b5b600061331f848285016132e6565b91505092915050565b600061333382612008565b91507fffffffffffffffffffffffffffffffffffffffffffffffffffffffffffffffff82141561336657613365612907565b5b600182019050919050565b7f4e487b7100000000000000000000000000000000000000000000000000000000600052601260045260246000fd5b60006133ab82612008565b91506133b683612008565b9250826133c6576133c5613371565b5b828204905092915050565b60006133dc82612008565b91506133e783612008565b9250826133f7576133f6613371565b5b82820690509291505056fea264697066735822122085edd98113e2f43ccd506c6c8856d63992cc1b8cf8e83934e9ac93153ca68a4b64736f6c63430008090033",
  "immutableReferences": {},
  "source": "pragma solidity ^0.8.0;\n\nimport \"@openzeppelin/contracts/token/ERC721/ERC721.sol\";\nimport \"@openzeppelin/contracts/utils/Counters.sol\";\nimport \"@openzeppelin/contracts/access/Ownable.sol\";\nimport \"@openzeppelin/contracts/token/ERC721/extensions/ERC721URIStorage.sol\";\n\ncontract LevelPass is ERC721URIStorage, Ownable {\n    using Strings for string;\n    using Counters for Counters.Counter;\n\n    Counters.Counter private _tokenIds;\n\n    mapping(address => uint256) userToId;\n    mapping(uint256 => uint256[]) idToRewards;\n\n    event LevelPassRequest(uint256 id);\n    event AddedReward(uint256 idx);\n    event RemovedReward(uint256 id);\n    event GetTokenURI(string uri);\n\n    constructor()\n        public\n        ERC721(\"LevelPass\", \"LP\")\n    {   }\n\n    /* requestNewLevelPass(): creates a new level pass, sets its URI, and transfers it to the recipient\n     */\n    function requestNewLevelPass(\n        address recipient,\n        string memory tokenURI\n    ) public {\n        require(\n            userToId[recipient] == 0,\n            \"Recipient already owns a level pass.\"\n        );\n        _tokenIds.increment();\n        uint256 newId = _tokenIds.current();\n        _mint(recipient, newId);\n        _setTokenURI(newId, tokenURI);\n        userToId[recipient] = newId;\n        emit LevelPassRequest(newId);\n    }\n\n    /* addRewardToLevelPass(): adds a reward to the specified LevelPass, returns the index of the added pass\n     */\n    function addRewardToLevelPass(\n        uint256 levelPassId,\n        uint256 rewardId\n    ) public {\n        idToRewards[levelPassId].push(rewardId);\n        emit AddedReward(idToRewards[levelPassId].length - 1);\n    }\n\n    /* removeRewardFromLevelPass(): removes a reward from the specified LevelPass, returning the id of the reward that was removed\n     */\n    function removeRewardFromLevelPass(\n        uint256 levelPassId,\n        uint256 rewardIdx // same idx as returned from addRewardToLevelPass()\n    ) public {\n        uint256 rewardId = idToRewards[levelPassId][rewardIdx];\n        delete idToRewards[levelPassId][rewardIdx];\n        emit RemovedReward(rewardId);\n    }\n\n    /* getRewards(): gets the rewards for a specified LevelPass\n     */\n    function getRewards(\n        uint256 levelPassId\n    ) public view returns (uint256[] memory) {\n        return idToRewards[levelPassId];\n    }\n}\n\n",
  "sourcePath": "/Users/nathanielnemenzo/Desktop/learning/hacktx2021/levels/contracts/LevelPass.sol",
  "compiler": {
    "name": "solc",
    "version": "0.8.9+commit.e5eed63a.Emscripten.clang"
  },
  "schemaVersion": "3.4.3",
  "updatedAt": "2021-10-31T14:11:24.400Z",
  "devdoc": {
    "kind": "dev",
    "methods": {
      "approve(address,uint256)": {
        "details": "See {IERC721-approve}."
      },
      "balanceOf(address)": {
        "details": "See {IERC721-balanceOf}."
      },
      "getApproved(uint256)": {
        "details": "See {IERC721-getApproved}."
      },
      "isApprovedForAll(address,address)": {
        "details": "See {IERC721-isApprovedForAll}."
      },
      "name()": {
        "details": "See {IERC721Metadata-name}."
      },
      "owner()": {
        "details": "Returns the address of the current owner."
      },
      "ownerOf(uint256)": {
        "details": "See {IERC721-ownerOf}."
      },
      "renounceOwnership()": {
        "details": "Leaves the contract without owner. It will not be possible to call `onlyOwner` functions anymore. Can only be called by the current owner. NOTE: Renouncing ownership will leave the contract without an owner, thereby removing any functionality that is only available to the owner."
      },
      "safeTransferFrom(address,address,uint256)": {
        "details": "See {IERC721-safeTransferFrom}."
      },
      "safeTransferFrom(address,address,uint256,bytes)": {
        "details": "See {IERC721-safeTransferFrom}."
      },
      "setApprovalForAll(address,bool)": {
        "details": "See {IERC721-setApprovalForAll}."
      },
      "supportsInterface(bytes4)": {
        "details": "See {IERC165-supportsInterface}."
      },
      "symbol()": {
        "details": "See {IERC721Metadata-symbol}."
      },
      "tokenURI(uint256)": {
        "details": "See {IERC721Metadata-tokenURI}."
      },
      "transferFrom(address,address,uint256)": {
        "details": "See {IERC721-transferFrom}."
      },
      "transferOwnership(address)": {
        "details": "Transfers ownership of the contract to a new account (`newOwner`). Can only be called by the current owner."
      }
    },
    "version": 1
  },
  "userdoc": {
    "kind": "user",
    "methods": {},
    "version": 1
  }
}