{
  "contractName": "Reward",
  "abi": [
    {
      "inputs": [],
      "stateMutability": "nonpayable",
      "type": "constructor"
    },
    {
      "anonymous": false,
      "inputs": [
        {
          "indexed": true,
          "internalType": "address",
          "name": "owner",
          "type": "address"
        },
        {
          "indexed": true,
          "internalType": "address",
          "name": "approved",
          "type": "address"
        },
        {
          "indexed": true,
          "internalType": "uint256",
          "name": "tokenId",
          "type": "uint256"
        }
      ],
      "name": "Approval",
      "type": "event"
    },
    {
      "anonymous": false,
      "inputs": [
        {
          "indexed": true,
          "internalType": "address",
          "name": "owner",
          "type": "address"
        },
        {
          "indexed": true,
          "internalType": "address",
          "name": "operator",
          "type": "address"
        },
        {
          "indexed": false,
          "internalType": "bool",
          "name": "approved",
          "type": "bool"
        }
      ],
      "name": "ApprovalForAll",
      "type": "event"
    },
    {
      "anonymous": false,
      "inputs": [
        {
          "indexed": true,
          "internalType": "address",
          "name": "previousOwner",
          "type": "address"
        },
        {
          "indexed": true,
          "internalType": "address",
          "name": "newOwner",
          "type": "address"
        }
      ],
      "name": "OwnershipTransferred",
      "type": "event"
    },
    {
      "anonymous": false,
      "inputs": [
        {
          "indexed": false,
          "internalType": "uint256",
          "name": "id",
          "type": "uint256"
        }
      ],
      "name": "RewardRequest",
      "type": "event"
    },
    {
      "anonymous": false,
      "inputs": [
        {
          "indexed": true,
          "internalType": "address",
          "name": "from",
          "type": "address"
        },
        {
          "indexed": true,
          "internalType": "address",
          "name": "to",
          "type": "address"
        },
        {
          "indexed": true,
          "internalType": "uint256",
          "name": "tokenId",
          "type": "uint256"
        }
      ],
      "name": "Transfer",
      "type": "event"
    },
    {
      "inputs": [
        {
          "internalType": "address",
          "name": "to",
          "type": "address"
        },
        {
          "internalType": "uint256",
          "name": "tokenId",
          "type": "uint256"
        }
      ],
      "name": "approve",
      "outputs": [],
      "stateMutability": "nonpayable",
      "type": "function"
    },
    {
      "inputs": [
        {
          "internalType": "address",
          "name": "owner",
          "type": "address"
        }
      ],
      "name": "balanceOf",
      "outputs": [
        {
          "internalType": "uint256",
          "name": "",
          "type": "uint256"
        }
      ],
      "stateMutability": "view",
      "type": "function"
    },
    {
      "inputs": [
        {
          "internalType": "uint256",
          "name": "tokenId",
          "type": "uint256"
        }
      ],
      "name": "getApproved",
      "outputs": [
        {
          "internalType": "address",
          "name": "",
          "type": "address"
        }
      ],
      "stateMutability": "view",
      "type": "function"
    },
    {
      "inputs": [
        {
          "internalType": "address",
          "name": "owner",
          "type": "address"
        },
        {
          "internalType": "address",
          "name": "operator",
          "type": "address"
        }
      ],
      "name": "isApprovedForAll",
      "outputs": [
        {
          "internalType": "bool",
          "name": "",
          "type": "bool"
        }
      ],
      "stateMutability": "view",
      "type": "function"
    },
    {
      "inputs": [],
      "name": "name",
      "outputs": [
        {
          "internalType": "string",
          "name": "",
          "type": "string"
        }
      ],
      "stateMutability": "view",
      "type": "function"
    },
    {
      "inputs": [],
      "name": "owner",
      "outputs": [
        {
          "internalType": "address",
          "name": "",
          "type": "address"
        }
      ],
      "stateMutability": "view",
      "type": "function"
    },
    {
      "inputs": [
        {
          "internalType": "uint256",
          "name": "tokenId",
          "type": "uint256"
        }
      ],
      "name": "ownerOf",
      "outputs": [
        {
          "internalType": "address",
          "name": "",
          "type": "address"
        }
      ],
      "stateMutability": "view",
      "type": "function"
    },
    {
      "inputs": [],
      "name": "renounceOwnership",
      "outputs": [],
      "stateMutability": "nonpayable",
      "type": "function"
    },
    {
      "inputs": [
        {
          "internalType": "address",
          "name": "from",
          "type": "address"
        },
        {
          "internalType": "address",
          "name": "to",
          "type": "address"
        },
        {
          "internalType": "uint256",
          "name": "tokenId",
          "type": "uint256"
        }
      ],
      "name": "safeTransferFrom",
      "outputs": [],
      "stateMutability": "nonpayable",
      "type": "function"
    },
    {
      "inputs": [
        {
          "internalType": "address",
          "name": "from",
          "type": "address"
        },
        {
          "internalType": "address",
          "name": "to",
          "type": "address"
        },
        {
          "internalType": "uint256",
          "name": "tokenId",
          "type": "uint256"
        },
        {
          "internalType": "bytes",
          "name": "_data",
          "type": "bytes"
        }
      ],
      "name": "safeTransferFrom",
      "outputs": [],
      "stateMutability": "nonpayable",
      "type": "function"
    },
    {
      "inputs": [
        {
          "internalType": "address",
          "name": "operator",
          "type": "address"
        },
        {
          "internalType": "bool",
          "name": "approved",
          "type": "bool"
        }
      ],
      "name": "setApprovalForAll",
      "outputs": [],
      "stateMutability": "nonpayable",
      "type": "function"
    },
    {
      "inputs": [
        {
          "internalType": "bytes4",
          "name": "interfaceId",
          "type": "bytes4"
        }
      ],
      "name": "supportsInterface",
      "outputs": [
        {
          "internalType": "bool",
          "name": "",
          "type": "bool"
        }
      ],
      "stateMutability": "view",
      "type": "function"
    },
    {
      "inputs": [],
      "name": "symbol",
      "outputs": [
        {
          "internalType": "string",
          "name": "",
          "type": "string"
        }
      ],
      "stateMutability": "view",
      "type": "function"
    },
    {
      "inputs": [
        {
          "internalType": "uint256",
          "name": "tokenId",
          "type": "uint256"
        }
      ],
      "name": "tokenURI",
      "outputs": [
        {
          "internalType": "string",
          "name": "",
          "type": "string"
        }
      ],
      "stateMutability": "view",
      "type": "function"
    },
    {
      "inputs": [
        {
          "internalType": "address",
          "name": "from",
          "type": "address"
        },
        {
          "internalType": "address",
          "name": "to",
          "type": "address"
        },
        {
          "internalType": "uint256",
          "name": "tokenId",
          "type": "uint256"
        }
      ],
      "name": "transferFrom",
      "outputs": [],
      "stateMutability": "nonpayable",
      "type": "function"
    },
    {
      "inputs": [
        {
          "internalType": "address",
          "name": "newOwner",
          "type": "address"
        }
      ],
      "name": "transferOwnership",
      "outputs": [],
      "stateMutability": "nonpayable",
      "type": "function"
    },
    {
      "inputs": [
        {
          "internalType": "address",
          "name": "recipient",
          "type": "address"
        },
        {
          "internalType": "string",
          "name": "tokenURI",
          "type": "string"
        }
      ],
      "name": "requestNewReward",
      "outputs": [],
      "stateMutability": "nonpayable",
      "type": "function"
    },
    {
      "inputs": [
        {
          "internalType": "uint256",
          "name": "rewardId",
          "type": "uint256"
        }
      ],
      "name": "consumeReward",
      "outputs": [],
      "stateMutability": "nonpayable",
      "type": "function"
    }
  ],
  "bytecode": "0x60806040523480156200001157600080fd5b506040518060400160405280600681526020017f52657761726400000000000000000000000000000000000000000000000000008152506040518060400160405280600381526020017f5257440000000000000000000000000000000000000000000000000000000000815250816000908051906020019062000096929190620001a6565b508060019080519060200190620000af929190620001a6565b505050620000d2620000c6620000d860201b60201c565b620000e060201b60201c565b620002bb565b600033905090565b6000600760009054906101000a900473ffffffffffffffffffffffffffffffffffffffff16905081600760006101000a81548173ffffffffffffffffffffffffffffffffffffffff021916908373ffffffffffffffffffffffffffffffffffffffff1602179055508173ffffffffffffffffffffffffffffffffffffffff168173ffffffffffffffffffffffffffffffffffffffff167f8be0079c531659141344cd1fd0a4f28419497f9722a3daafe3b4186f6b6457e060405160405180910390a35050565b828054620001b49062000285565b90600052602060002090601f016020900481019282620001d8576000855562000224565b82601f10620001f357805160ff191683800117855562000224565b8280016001018555821562000224579182015b828111156200022357825182559160200191906001019062000206565b5b50905062000233919062000237565b5090565b5b808211156200025257600081600090555060010162000238565b5090565b7f4e487b7100000000000000000000000000000000000000000000000000000000600052602260045260246000fd5b600060028204905060018216806200029e57607f821691505b60208210811415620002b557620002b462000256565b5b50919050565b61316980620002cb6000396000f3fe608060405234801561001057600080fd5b50600436106101165760003560e01c80638da5cb5b116100a2578063c87b56dd11610071578063c87b56dd146102cb578063cc5819b0146102fb578063e985e9c514610317578063f2fde38b14610347578063f940b3131461036357610116565b80638da5cb5b1461025757806395d89b4114610275578063a22cb46514610293578063b88d4fde146102af57610116565b806323b872dd116100e957806323b872dd146101b557806342842e0e146101d15780636352211e146101ed57806370a082311461021d578063715018a61461024d57610116565b806301ffc9a71461011b57806306fdde031461014b578063081812fc14610169578063095ea7b314610199575b600080fd5b61013560048036038101906101309190611dcd565b61037f565b6040516101429190611e15565b60405180910390f35b610153610461565b6040516101609190611ec9565b60405180910390f35b610183600480360381019061017e9190611f21565b6104f3565b6040516101909190611f8f565b60405180910390f35b6101b360048036038101906101ae9190611fd6565b610578565b005b6101cf60048036038101906101ca9190612016565b610690565b005b6101eb60048036038101906101e69190612016565b6106f0565b005b61020760048036038101906102029190611f21565b610710565b6040516102149190611f8f565b60405180910390f35b61023760048036038101906102329190612069565b6107c2565b60405161024491906120a5565b60405180910390f35b61025561087a565b005b61025f610902565b60405161026c9190611f8f565b60405180910390f35b61027d61092c565b60405161028a9190611ec9565b60405180910390f35b6102ad60048036038101906102a891906120ec565b6109be565b005b6102c960048036038101906102c49190612261565b610b3f565b005b6102e560048036038101906102e09190611f21565b610ba1565b6040516102f29190611ec9565b60405180910390f35b61031560048036038101906103109190612385565b610cf3565b005b610331600480360381019061032c91906123e1565b610d5b565b60405161033e9190611e15565b60405180910390f35b610361600480360381019061035c9190612069565b610def565b005b61037d60048036038101906103789190611f21565b610ee7565b005b60007f80ac58cd000000000000000000000000000000000000000000000000000000007bffffffffffffffffffffffffffffffffffffffffffffffffffffffff1916827bffffffffffffffffffffffffffffffffffffffffffffffffffffffff1916148061044a57507f5b5e139f000000000000000000000000000000000000000000000000000000007bffffffffffffffffffffffffffffffffffffffffffffffffffffffff1916827bffffffffffffffffffffffffffffffffffffffffffffffffffffffff1916145b8061045a575061045982610ef3565b5b9050919050565b60606000805461047090612450565b80601f016020809104026020016040519081016040528092919081815260200182805461049c90612450565b80156104e95780601f106104be576101008083540402835291602001916104e9565b820191906000526020600020905b8154815290600101906020018083116104cc57829003601f168201915b5050505050905090565b60006104fe82610f5d565b61053d576040517f08c379a0000000000000000000000000000000000000000000000000000000008152600401610534906124f4565b60405180910390fd5b6004600083815260200190815260200160002060009054906101000a900473ffffffffffffffffffffffffffffffffffffffff169050919050565b600061058382610710565b90508073ffffffffffffffffffffffffffffffffffffffff168373ffffffffffffffffffffffffffffffffffffffff1614156105f4576040517f08c379a00000000000000000000000000000000000000000000000000000000081526004016105eb90612586565b60405180910390fd5b8073ffffffffffffffffffffffffffffffffffffffff16610613610fc9565b73ffffffffffffffffffffffffffffffffffffffff16148061064257506106418161063c610fc9565b610d5b565b5b610681576040517f08c379a000000000000000000000000000000000000000000000000000000000815260040161067890612618565b60405180910390fd5b61068b8383610fd1565b505050565b6106a161069b610fc9565b8261108a565b6106e0576040517f08c379a00000000000000000000000000000000000000000000000000000000081526004016106d7906126aa565b60405180910390fd5b6106eb838383611168565b505050565b61070b83838360405180602001604052806000815250610b3f565b505050565b6000806002600084815260200190815260200160002060009054906101000a900473ffffffffffffffffffffffffffffffffffffffff169050600073ffffffffffffffffffffffffffffffffffffffff168173ffffffffffffffffffffffffffffffffffffffff1614156107b9576040517f08c379a00000000000000000000000000000000000000000000000000000000081526004016107b09061273c565b60405180910390fd5b80915050919050565b60008073ffffffffffffffffffffffffffffffffffffffff168273ffffffffffffffffffffffffffffffffffffffff161415610833576040517f08c379a000000000000000000000000000000000000000000000000000000000815260040161082a906127ce565b60405180910390fd5b600360008373ffffffffffffffffffffffffffffffffffffffff1673ffffffffffffffffffffffffffffffffffffffff168152602001908152602001600020549050919050565b610882610fc9565b73ffffffffffffffffffffffffffffffffffffffff166108a0610902565b73ffffffffffffffffffffffffffffffffffffffff16146108f6576040517f08c379a00000000000000000000000000000000000000000000000000000000081526004016108ed9061283a565b60405180910390fd5b61090060006113c4565b565b6000600760009054906101000a900473ffffffffffffffffffffffffffffffffffffffff16905090565b60606001805461093b90612450565b80601f016020809104026020016040519081016040528092919081815260200182805461096790612450565b80156109b45780601f10610989576101008083540402835291602001916109b4565b820191906000526020600020905b81548152906001019060200180831161099757829003601f168201915b5050505050905090565b6109c6610fc9565b73ffffffffffffffffffffffffffffffffffffffff168273ffffffffffffffffffffffffffffffffffffffff161415610a34576040517f08c379a0000000000000000000000000000000000000000000000000000000008152600401610a2b906128a6565b60405180910390fd5b8060056000610a41610fc9565b73ffffffffffffffffffffffffffffffffffffffff1673ffffffffffffffffffffffffffffffffffffffff16815260200190815260200160002060008473ffffffffffffffffffffffffffffffffffffffff1673ffffffffffffffffffffffffffffffffffffffff16815260200190815260200160002060006101000a81548160ff0219169083151502179055508173ffffffffffffffffffffffffffffffffffffffff16610aee610fc9565b73ffffffffffffffffffffffffffffffffffffffff167f17307eab39ab6107e8899845ad3d59bd9653f200f220920489ca2b5937696c3183604051610b339190611e15565b60405180910390a35050565b610b50610b4a610fc9565b8361108a565b610b8f576040517f08c379a0000000000000000000000000000000000000000000000000000000008152600401610b86906126aa565b60405180910390fd5b610b9b8484848461148a565b50505050565b6060610bac82610f5d565b610beb576040517f08c379a0000000000000000000000000000000000000000000000000000000008152600401610be290612938565b60405180910390fd5b6000600660008481526020019081526020016000208054610c0b90612450565b80601f0160208091040260200160405190810160405280929190818152602001828054610c3790612450565b8015610c845780601f10610c5957610100808354040283529160200191610c84565b820191906000526020600020905b815481529060010190602001808311610c6757829003601f168201915b505050505090506000610c956114e6565b9050600081511415610cab578192505050610cee565b600082511115610ce0578082604051602001610cc8929190612994565b60405160208183030381529060405292505050610cee565b610ce9846114fd565b925050505b919050565b610cfd60086115a4565b6000610d0960086115ba565b9050610d1583826115c8565b610d1f8183611796565b7f949e92fe3a7dcc73fe7193e1309d6773f338fa3ff4c0ac4f69a6b34957de310781604051610d4e91906120a5565b60405180910390a1505050565b6000600560008473ffffffffffffffffffffffffffffffffffffffff1673ffffffffffffffffffffffffffffffffffffffff16815260200190815260200160002060008373ffffffffffffffffffffffffffffffffffffffff1673ffffffffffffffffffffffffffffffffffffffff16815260200190815260200160002060009054906101000a900460ff16905092915050565b610df7610fc9565b73ffffffffffffffffffffffffffffffffffffffff16610e15610902565b73ffffffffffffffffffffffffffffffffffffffff1614610e6b576040517f08c379a0000000000000000000000000000000000000000000000000000000008152600401610e629061283a565b60405180910390fd5b600073ffffffffffffffffffffffffffffffffffffffff168173ffffffffffffffffffffffffffffffffffffffff161415610edb576040517f08c379a0000000000000000000000000000000000000000000000000000000008152600401610ed290612a2a565b60405180910390fd5b610ee4816113c4565b50565b610ef08161180a565b50565b60007f01ffc9a7000000000000000000000000000000000000000000000000000000007bffffffffffffffffffffffffffffffffffffffffffffffffffffffff1916827bffffffffffffffffffffffffffffffffffffffffffffffffffffffff1916149050919050565b60008073ffffffffffffffffffffffffffffffffffffffff166002600084815260200190815260200160002060009054906101000a900473ffffffffffffffffffffffffffffffffffffffff1673ffffffffffffffffffffffffffffffffffffffff1614159050919050565b600033905090565b816004600083815260200190815260200160002060006101000a81548173ffffffffffffffffffffffffffffffffffffffff021916908373ffffffffffffffffffffffffffffffffffffffff160217905550808273ffffffffffffffffffffffffffffffffffffffff1661104483610710565b73ffffffffffffffffffffffffffffffffffffffff167f8c5be1e5ebec7d5bd14f71427d1e84f3dd0314c0f7b2291e5b200ac8c7c3b92560405160405180910390a45050565b600061109582610f5d565b6110d4576040517f08c379a00000000000000000000000000000000000000000000000000000000081526004016110cb90612abc565b60405180910390fd5b60006110df83610710565b90508073ffffffffffffffffffffffffffffffffffffffff168473ffffffffffffffffffffffffffffffffffffffff16148061114e57508373ffffffffffffffffffffffffffffffffffffffff16611136846104f3565b73ffffffffffffffffffffffffffffffffffffffff16145b8061115f575061115e8185610d5b565b5b91505092915050565b8273ffffffffffffffffffffffffffffffffffffffff1661118882610710565b73ffffffffffffffffffffffffffffffffffffffff16146111de576040517f08c379a00000000000000000000000000000000000000000000000000000000081526004016111d590612b4e565b60405180910390fd5b600073ffffffffffffffffffffffffffffffffffffffff168273ffffffffffffffffffffffffffffffffffffffff16141561124e576040517f08c379a000000000000000000000000000000000000000000000000000000000815260040161124590612be0565b60405180910390fd5b61125983838361185d565b611264600082610fd1565b6001600360008573ffffffffffffffffffffffffffffffffffffffff1673ffffffffffffffffffffffffffffffffffffffff16815260200190815260200160002060008282546112b49190612c2f565b925050819055506001600360008473ffffffffffffffffffffffffffffffffffffffff1673ffffffffffffffffffffffffffffffffffffffff168152602001908152602001600020600082825461130b9190612c63565b92505081905550816002600083815260200190815260200160002060006101000a81548173ffffffffffffffffffffffffffffffffffffffff021916908373ffffffffffffffffffffffffffffffffffffffff160217905550808273ffffffffffffffffffffffffffffffffffffffff168473ffffffffffffffffffffffffffffffffffffffff167fddf252ad1be2c89b69c2b068fc378daa952ba7f163c4a11628f55a4df523b3ef60405160405180910390a4505050565b6000600760009054906101000a900473ffffffffffffffffffffffffffffffffffffffff16905081600760006101000a81548173ffffffffffffffffffffffffffffffffffffffff021916908373ffffffffffffffffffffffffffffffffffffffff1602179055508173ffffffffffffffffffffffffffffffffffffffff168173ffffffffffffffffffffffffffffffffffffffff167f8be0079c531659141344cd1fd0a4f28419497f9722a3daafe3b4186f6b6457e060405160405180910390a35050565b611495848484611168565b6114a184848484611862565b6114e0576040517f08c379a00000000000000000000000000000000000000000000000000000000081526004016114d790612d2b565b60405180910390fd5b50505050565b606060405180602001604052806000815250905090565b606061150882610f5d565b611547576040517f08c379a000000000000000000000000000000000000000000000000000000000815260040161153e90612dbd565b60405180910390fd5b60006115516114e6565b90506000815111611571576040518060200160405280600081525061159c565b8061157b846119f9565b60405160200161158c929190612994565b6040516020818303038152906040525b915050919050565b6001816000016000828254019250508190555050565b600081600001549050919050565b600073ffffffffffffffffffffffffffffffffffffffff168273ffffffffffffffffffffffffffffffffffffffff161415611638576040517f08c379a000000000000000000000000000000000000000000000000000000000815260040161162f90612e29565b60405180910390fd5b61164181610f5d565b15611681576040517f08c379a000000000000000000000000000000000000000000000000000000000815260040161167890612e95565b60405180910390fd5b61168d6000838361185d565b6001600360008473ffffffffffffffffffffffffffffffffffffffff1673ffffffffffffffffffffffffffffffffffffffff16815260200190815260200160002060008282546116dd9190612c63565b92505081905550816002600083815260200190815260200160002060006101000a81548173ffffffffffffffffffffffffffffffffffffffff021916908373ffffffffffffffffffffffffffffffffffffffff160217905550808273ffffffffffffffffffffffffffffffffffffffff16600073ffffffffffffffffffffffffffffffffffffffff167fddf252ad1be2c89b69c2b068fc378daa952ba7f163c4a11628f55a4df523b3ef60405160405180910390a45050565b61179f82610f5d565b6117de576040517f08c379a00000000000000000000000000000000000000000000000000000000081526004016117d590612f27565b60405180910390fd5b80600660008481526020019081526020016000209080519060200190611805929190611c7e565b505050565b61181381611b5a565b600060066000838152602001908152602001600020805461183390612450565b90501461185a576006600082815260200190815260200160002060006118599190611d04565b5b50565b505050565b60006118838473ffffffffffffffffffffffffffffffffffffffff16611c6b565b156119ec578373ffffffffffffffffffffffffffffffffffffffff1663150b7a026118ac610fc9565b8786866040518563ffffffff1660e01b81526004016118ce9493929190612f9c565b602060405180830381600087803b1580156118e857600080fd5b505af192505050801561191957506040513d601f19601f820116820180604052508101906119169190612ffd565b60015b61199c573d8060008114611949576040519150601f19603f3d011682016040523d82523d6000602084013e61194e565b606091505b50600081511415611994576040517f08c379a000000000000000000000000000000000000000000000000000000000815260040161198b90612d2b565b60405180910390fd5b805181602001fd5b63150b7a0260e01b7bffffffffffffffffffffffffffffffffffffffffffffffffffffffff1916817bffffffffffffffffffffffffffffffffffffffffffffffffffffffff1916149150506119f1565b600190505b949350505050565b60606000821415611a41576040518060400160405280600181526020017f30000000000000000000000000000000000000000000000000000000000000008152509050611b55565b600082905060005b60008214611a73578080611a5c9061302a565b915050600a82611a6c91906130a2565b9150611a49565b60008167ffffffffffffffff811115611a8f57611a8e612136565b5b6040519080825280601f01601f191660200182016040528015611ac15781602001600182028036833780820191505090505b5090505b60008514611b4e57600182611ada9190612c2f565b9150600a85611ae991906130d3565b6030611af59190612c63565b60f81b818381518110611b0b57611b0a613104565b5b60200101907effffffffffffffffffffffffffffffffffffffffffffffffffffffffffffff1916908160001a905350600a85611b4791906130a2565b9450611ac5565b8093505050505b919050565b6000611b6582610710565b9050611b738160008461185d565b611b7e600083610fd1565b6001600360008373ffffffffffffffffffffffffffffffffffffffff1673ffffffffffffffffffffffffffffffffffffffff1681526020019081526020016000206000828254611bce9190612c2f565b925050819055506002600083815260200190815260200160002060006101000a81549073ffffffffffffffffffffffffffffffffffffffff021916905581600073ffffffffffffffffffffffffffffffffffffffff168273ffffffffffffffffffffffffffffffffffffffff167fddf252ad1be2c89b69c2b068fc378daa952ba7f163c4a11628f55a4df523b3ef60405160405180910390a45050565b600080823b905060008111915050919050565b828054611c8a90612450565b90600052602060002090601f016020900481019282611cac5760008555611cf3565b82601f10611cc557805160ff1916838001178555611cf3565b82800160010185558215611cf3579182015b82811115611cf2578251825591602001919060010190611cd7565b5b509050611d009190611d44565b5090565b508054611d1090612450565b6000825580601f10611d225750611d41565b601f016020900490600052602060002090810190611d409190611d44565b5b50565b5b80821115611d5d576000816000905550600101611d45565b5090565b6000604051905090565b600080fd5b600080fd5b60007fffffffff0000000000000000000000000000000000000000000000000000000082169050919050565b611daa81611d75565b8114611db557600080fd5b50565b600081359050611dc781611da1565b92915050565b600060208284031215611de357611de2611d6b565b5b6000611df184828501611db8565b91505092915050565b60008115159050919050565b611e0f81611dfa565b82525050565b6000602082019050611e2a6000830184611e06565b92915050565b600081519050919050565b600082825260208201905092915050565b60005b83811015611e6a578082015181840152602081019050611e4f565b83811115611e79576000848401525b50505050565b6000601f19601f8301169050919050565b6000611e9b82611e30565b611ea58185611e3b565b9350611eb5818560208601611e4c565b611ebe81611e7f565b840191505092915050565b60006020820190508181036000830152611ee38184611e90565b905092915050565b6000819050919050565b611efe81611eeb565b8114611f0957600080fd5b50565b600081359050611f1b81611ef5565b92915050565b600060208284031215611f3757611f36611d6b565b5b6000611f4584828501611f0c565b91505092915050565b600073ffffffffffffffffffffffffffffffffffffffff82169050919050565b6000611f7982611f4e565b9050919050565b611f8981611f6e565b82525050565b6000602082019050611fa46000830184611f80565b92915050565b611fb381611f6e565b8114611fbe57600080fd5b50565b600081359050611fd081611faa565b92915050565b60008060408385031215611fed57611fec611d6b565b5b6000611ffb85828601611fc1565b925050602061200c85828601611f0c565b9150509250929050565b60008060006060848603121561202f5761202e611d6b565b5b600061203d86828701611fc1565b935050602061204e86828701611fc1565b925050604061205f86828701611f0c565b9150509250925092565b60006020828403121561207f5761207e611d6b565b5b600061208d84828501611fc1565b91505092915050565b61209f81611eeb565b82525050565b60006020820190506120ba6000830184612096565b92915050565b6120c981611dfa565b81146120d457600080fd5b50565b6000813590506120e6816120c0565b92915050565b6000806040838503121561210357612102611d6b565b5b600061211185828601611fc1565b9250506020612122858286016120d7565b9150509250929050565b600080fd5b600080fd5b7f4e487b7100000000000000000000000000000000000000000000000000000000600052604160045260246000fd5b61216e82611e7f565b810181811067ffffffffffffffff8211171561218d5761218c612136565b5b80604052505050565b60006121a0611d61565b90506121ac8282612165565b919050565b600067ffffffffffffffff8211156121cc576121cb612136565b5b6121d582611e7f565b9050602081019050919050565b82818337600083830152505050565b60006122046121ff846121b1565b612196565b9050828152602081018484840111156122205761221f612131565b5b61222b8482856121e2565b509392505050565b600082601f8301126122485761224761212c565b5b81356122588482602086016121f1565b91505092915050565b6000806000806080858703121561227b5761227a611d6b565b5b600061228987828801611fc1565b945050602061229a87828801611fc1565b93505060406122ab87828801611f0c565b925050606085013567ffffffffffffffff8111156122cc576122cb611d70565b5b6122d887828801612233565b91505092959194509250565b600067ffffffffffffffff8211156122ff576122fe612136565b5b61230882611e7f565b9050602081019050919050565b6000612328612323846122e4565b612196565b90508281526020810184848401111561234457612343612131565b5b61234f8482856121e2565b509392505050565b600082601f83011261236c5761236b61212c565b5b813561237c848260208601612315565b91505092915050565b6000806040838503121561239c5761239b611d6b565b5b60006123aa85828601611fc1565b925050602083013567ffffffffffffffff8111156123cb576123ca611d70565b5b6123d785828601612357565b9150509250929050565b600080604083850312156123f8576123f7611d6b565b5b600061240685828601611fc1565b925050602061241785828601611fc1565b9150509250929050565b7f4e487b7100000000000000000000000000000000000000000000000000000000600052602260045260246000fd5b6000600282049050600182168061246857607f821691505b6020821081141561247c5761247b612421565b5b50919050565b7f4552433732313a20617070726f76656420717565727920666f72206e6f6e657860008201527f697374656e7420746f6b656e0000000000000000000000000000000000000000602082015250565b60006124de602c83611e3b565b91506124e982612482565b604082019050919050565b6000602082019050818103600083015261250d816124d1565b9050919050565b7f4552433732313a20617070726f76616c20746f2063757272656e74206f776e6560008201527f7200000000000000000000000000000000000000000000000000000000000000602082015250565b6000612570602183611e3b565b915061257b82612514565b604082019050919050565b6000602082019050818103600083015261259f81612563565b9050919050565b7f4552433732313a20617070726f76652063616c6c6572206973206e6f74206f7760008201527f6e6572206e6f7220617070726f76656420666f7220616c6c0000000000000000602082015250565b6000612602603883611e3b565b915061260d826125a6565b604082019050919050565b60006020820190508181036000830152612631816125f5565b9050919050565b7f4552433732313a207472616e736665722063616c6c6572206973206e6f74206f60008201527f776e6572206e6f7220617070726f766564000000000000000000000000000000602082015250565b6000612694603183611e3b565b915061269f82612638565b604082019050919050565b600060208201905081810360008301526126c381612687565b9050919050565b7f4552433732313a206f776e657220717565727920666f72206e6f6e657869737460008201527f656e7420746f6b656e0000000000000000000000000000000000000000000000602082015250565b6000612726602983611e3b565b9150612731826126ca565b604082019050919050565b6000602082019050818103600083015261275581612719565b9050919050565b7f4552433732313a2062616c616e636520717565727920666f7220746865207a6560008201527f726f206164647265737300000000000000000000000000000000000000000000602082015250565b60006127b8602a83611e3b565b91506127c38261275c565b604082019050919050565b600060208201905081810360008301526127e7816127ab565b9050919050565b7f4f776e61626c653a2063616c6c6572206973206e6f7420746865206f776e6572600082015250565b6000612824602083611e3b565b915061282f826127ee565b602082019050919050565b6000602082019050818103600083015261285381612817565b9050919050565b7f4552433732313a20617070726f766520746f2063616c6c657200000000000000600082015250565b6000612890601983611e3b565b915061289b8261285a565b602082019050919050565b600060208201905081810360008301526128bf81612883565b9050919050565b7f45524337323155524953746f726167653a2055524920717565727920666f722060008201527f6e6f6e6578697374656e7420746f6b656e000000000000000000000000000000602082015250565b6000612922603183611e3b565b915061292d826128c6565b604082019050919050565b6000602082019050818103600083015261295181612915565b9050919050565b600081905092915050565b600061296e82611e30565b6129788185612958565b9350612988818560208601611e4c565b80840191505092915050565b60006129a08285612963565b91506129ac8284612963565b91508190509392505050565b7f4f776e61626c653a206e6577206f776e657220697320746865207a65726f206160008201527f6464726573730000000000000000000000000000000000000000000000000000602082015250565b6000612a14602683611e3b565b9150612a1f826129b8565b604082019050919050565b60006020820190508181036000830152612a4381612a07565b9050919050565b7f4552433732313a206f70657261746f7220717565727920666f72206e6f6e657860008201527f697374656e7420746f6b656e0000000000000000000000000000000000000000602082015250565b6000612aa6602c83611e3b565b9150612ab182612a4a565b604082019050919050565b60006020820190508181036000830152612ad581612a99565b9050919050565b7f4552433732313a207472616e73666572206f6620746f6b656e2074686174206960008201527f73206e6f74206f776e0000000000000000000000000000000000000000000000602082015250565b6000612b38602983611e3b565b9150612b4382612adc565b604082019050919050565b60006020820190508181036000830152612b6781612b2b565b9050919050565b7f4552433732313a207472616e7366657220746f20746865207a65726f2061646460008201527f7265737300000000000000000000000000000000000000000000000000000000602082015250565b6000612bca602483611e3b565b9150612bd582612b6e565b604082019050919050565b60006020820190508181036000830152612bf981612bbd565b9050919050565b7f4e487b7100000000000000000000000000000000000000000000000000000000600052601160045260246000fd5b6000612c3a82611eeb565b9150612c4583611eeb565b925082821015612c5857612c57612c00565b5b828203905092915050565b6000612c6e82611eeb565b9150612c7983611eeb565b9250827fffffffffffffffffffffffffffffffffffffffffffffffffffffffffffffffff03821115612cae57612cad612c00565b5b828201905092915050565b7f4552433732313a207472616e7366657220746f206e6f6e20455243373231526560008201527f63656976657220696d706c656d656e7465720000000000000000000000000000602082015250565b6000612d15603283611e3b565b9150612d2082612cb9565b604082019050919050565b60006020820190508181036000830152612d4481612d08565b9050919050565b7f4552433732314d657461646174613a2055524920717565727920666f72206e6f60008201527f6e6578697374656e7420746f6b656e0000000000000000000000000000000000602082015250565b6000612da7602f83611e3b565b9150612db282612d4b565b604082019050919050565b60006020820190508181036000830152612dd681612d9a565b9050919050565b7f4552433732313a206d696e7420746f20746865207a65726f2061646472657373600082015250565b6000612e13602083611e3b565b9150612e1e82612ddd565b602082019050919050565b60006020820190508181036000830152612e4281612e06565b9050919050565b7f4552433732313a20746f6b656e20616c7265616479206d696e74656400000000600082015250565b6000612e7f601c83611e3b565b9150612e8a82612e49565b602082019050919050565b60006020820190508181036000830152612eae81612e72565b9050919050565b7f45524337323155524953746f726167653a2055524920736574206f66206e6f6e60008201527f6578697374656e7420746f6b656e000000000000000000000000000000000000602082015250565b6000612f11602e83611e3b565b9150612f1c82612eb5565b604082019050919050565b60006020820190508181036000830152612f4081612f04565b9050919050565b600081519050919050565b600082825260208201905092915050565b6000612f6e82612f47565b612f788185612f52565b9350612f88818560208601611e4c565b612f9181611e7f565b840191505092915050565b6000608082019050612fb16000830187611f80565b612fbe6020830186611f80565b612fcb6040830185612096565b8181036060830152612fdd8184612f63565b905095945050505050565b600081519050612ff781611da1565b92915050565b60006020828403121561301357613012611d6b565b5b600061302184828501612fe8565b91505092915050565b600061303582611eeb565b91507fffffffffffffffffffffffffffffffffffffffffffffffffffffffffffffffff82141561306857613067612c00565b5b600182019050919050565b7f4e487b7100000000000000000000000000000000000000000000000000000000600052601260045260246000fd5b60006130ad82611eeb565b91506130b883611eeb565b9250826130c8576130c7613073565b5b828204905092915050565b60006130de82611eeb565b91506130e983611eeb565b9250826130f9576130f8613073565b5b828206905092915050565b7f4e487b7100000000000000000000000000000000000000000000000000000000600052603260045260246000fdfea2646970667358221220d084a6f7e505d4b5907463e5f657d2614f5bd847dfc9b3068e40ea06ad29e06a64736f6c63430008090033",
  "immutableReferences": {},
  "source": "pragma solidity ^0.8.0;\n\nimport \"@openzeppelin/contracts/token/ERC721/ERC721.sol\";\nimport \"@openzeppelin/contracts/utils/Counters.sol\";\nimport \"@openzeppelin/contracts/access/Ownable.sol\";\nimport \"@openzeppelin/contracts/token/ERC721/extensions/ERC721URIStorage.sol\";\n\ncontract Reward is ERC721URIStorage, Ownable {\n    using Counters for Counters.Counter;\n    Counters.Counter private _tokenIds;\n\n    event RewardRequest(uint256 id);\n\n    constructor()\n        public\n        ERC721(\"Reward\", \"RWD\")\n    {   }\n\n    /* requestNewReward(): requests a new reward NFT and gives it to the specified recipient address\n     */\n    function requestNewReward(\n        address recipient,\n        string memory tokenURI\n    ) public {\n        _tokenIds.increment();\n        uint256 newId = _tokenIds.current();\n        _mint(recipient, newId);\n        _setTokenURI(newId, tokenURI);\n        emit RewardRequest(newId);\n    }\n\n    /* consumeReward(): consumes a reward, essentially burning the NFT\n     */\n    function consumeReward(\n        uint256 rewardId\n    ) public {\n        _burn(rewardId);\n    }\n}\n",
  "sourcePath": "/Users/nathanielnemenzo/Desktop/learning/hacktx2021/levels/contracts/Reward.sol",
  "compiler": {
    "name": "solc",
    "version": "0.8.9+commit.e5eed63a.Emscripten.clang"
  },
  "schemaVersion": "3.4.3",
  "updatedAt": "2021-10-31T07:53:49.611Z",
  "devdoc": {
    "kind": "dev",
    "methods": {
      "approve(address,uint256)": {
        "details": "See {IERC721-approve}."
      },
      "balanceOf(address)": {
        "details": "See {IERC721-balanceOf}."
      },
      "getApproved(uint256)": {
        "details": "See {IERC721-getApproved}."
      },
      "isApprovedForAll(address,address)": {
        "details": "See {IERC721-isApprovedForAll}."
      },
      "name()": {
        "details": "See {IERC721Metadata-name}."
      },
      "owner()": {
        "details": "Returns the address of the current owner."
      },
      "ownerOf(uint256)": {
        "details": "See {IERC721-ownerOf}."
      },
      "renounceOwnership()": {
        "details": "Leaves the contract without owner. It will not be possible to call `onlyOwner` functions anymore. Can only be called by the current owner. NOTE: Renouncing ownership will leave the contract without an owner, thereby removing any functionality that is only available to the owner."
      },
      "safeTransferFrom(address,address,uint256)": {
        "details": "See {IERC721-safeTransferFrom}."
      },
      "safeTransferFrom(address,address,uint256,bytes)": {
        "details": "See {IERC721-safeTransferFrom}."
      },
      "setApprovalForAll(address,bool)": {
        "details": "See {IERC721-setApprovalForAll}."
      },
      "supportsInterface(bytes4)": {
        "details": "See {IERC165-supportsInterface}."
      },
      "symbol()": {
        "details": "See {IERC721Metadata-symbol}."
      },
      "tokenURI(uint256)": {
        "details": "See {IERC721Metadata-tokenURI}."
      },
      "transferFrom(address,address,uint256)": {
        "details": "See {IERC721-transferFrom}."
      },
      "transferOwnership(address)": {
        "details": "Transfers ownership of the contract to a new account (`newOwner`). Can only be called by the current owner."
      }
    },
    "version": 1
  },
  "userdoc": {
    "kind": "user",
    "methods": {},
    "version": 1
  }
}